S0270000657374656972612D70726F6A6563742D6D6963726F6368697073747564696F2E7372656369
S11300000C9434000C9451000C9451000C9476021E
S11300100C943A020C9451000C9451000C9451002D
S11300200C9451000C9451000C9451000C94510008
S11300300C9451000C9451000C9451000C945100F8
S11300400C94E0000C9451000C9451000C94510059
S11300500C9451000C9451000C9451000C945100D8
S11300600C9451000C94510011241FBECFEFD8E022
S1130070DEBFCDBF11E0A0E0B1E0E4EFF7E002C0E5
S113008005900D92A431B107D9F721E0A4E1B1E0C4
S113009001C01D92A932B207E1F70E948B010C94B2
S11300A0F8030C940000F89484B1816084B984B19D
S11300B08D7F84B985B18E7F85B984B1846384B919
S11300C085B18B7C85B910928000109281001092CA
S11300D085001092840014BC92E095BD16BC81E0AA
S11300E080936E0084B1886084B983E88093B00003
S11300F09093B1001092B3008FEF8AB987B18E61EB
S113010087B91BB888B1817E88B987B18E7987B9E0
S113011088B1816688B984B18F7B84B985B18064E4
S113012085B9E8E6F0E0808183608083EBE6F0E067
S1130130808180648083ECE6F0E080818166808346
S113014078940895853608F084E62FEF829FC001E5
S1130150112464E670E00E94D0036093B300089514
S113016095B19B7C95B98D3489F08035E1F0873465
S113017031F5809116019091170101969093170122
S11301808093160185B1846085B908958091180122
S1130190909119010196909319018093180185B1EA
S11301A0806185B9089580911B0190911C0101968D
S11301B090931C0180931B0185B1806285B90895D9
S11301C01F920F920FB60F9211242F933F938F9388
S11301D09F93EF93FF9388B1817E88B9E0911501D5
S11301E0F0E0E050FF4FE081F0E0EA5FFE4F8081F5
S11301F08BB92091150130E02F5F3F4F81E090E0F3
S113020002C0880F991F2A95E2F798B1892B88B903
S1130210809115018F5F837080931501FF91EF9199
S11302209F918F913F912F910F900FBE0F901F9030
S1130230189585B18E7F85B92AE02A95F1F700C01B
S113024085B1816085B985E38A95F1F7000085B1B0
S11302508E7F85B980E090E0DC0112C0AC01BD0165
S11302604F5F5F4F6F4F7F4F81339547A105B105B6
S113027008F04CC085E08A95F1F70000DB01CA0163
S1130280199BECCF1092850010928400109280008C
S113029082E08093810080E090E0DC0118C0AC0132
S11302A0BD014F5F5F4F6F4F7F4F81339547A1056E
S11302B0B10538F01092810060E070E080E89FEBB7
S11302C0089585E08A95F1F70000DB01CA011999C8
S11302D0E6CF60918400709185001092810080E0E7
S11302E090E00E94AC0220E030E040E05FE30E9436
S11302F0120328E23EE74CE05DE30E94120320E093
S113030030E040E05FE30E941203089560E070E093
S113031080E89FEB08950E94530084E60E94A200A7
S113032080910501811103C00E94A200F9CF809140
S113033004010E94A2000E9419016B017C016093D8
S1130340250170932601809327019093280120E0D2
S113035030E041EE53E40E94A7028823CCF580915B
S11303601401811135C081E08093140120E030E054
S113037048E453E4C701B6010E94A70288233CF471
S113038087E40E94B0008AE080931A0121C020E033
S113039030E046E953E4C701B6010E94A70288236E
S11303A03CF48DE40E94B0008BE080931A0110C0ED
S11303B020E030E041EE53E4C701B6010E94A702F9
S11303C0882334F480E50E94B0008CE080931A0105
S11303D06091250170912601809127019091280157
S11303E020E030E041EE53E40E940D03181614F4AB
S11303F01092140180911A01809300018A3041F413
S11304002091160130911701309324012093230188
S11304108B3041F42091180130911901309324015B
S1130420209323018C3041F480911B0190911C0195
S11304309093240180932301E0902301F090240100
S1130440C70164E670E00E94D003CB012AE030E0EB
S1130450B9010E94D003E0E0F1E08183C701B90152
S11304600E94D003482FCB01B9010E94D00382839C
S1130470438356CF1F920F920FB60F9211242F93DE
S11304803F934F935F936F937F938F939F93AF9318
S1130490BF93EF93FF93309B10920501359903C0EE
S11304A081E080930501369910C080910401853064
S11304B030F08091040185508093040102C01092B1
S11304C00401809104010E94A200FF91EF91BF9169
S11304D0AF919F918F917F916F915F914F913F91D8
S11304E02F910F900FBE0F901F9018951F920F928F
S11304F00FB60F9211242F933F934F935F936F93F3
S11305007F938F939F93AF93BF93EF93FF931E9922
S11305100DC080910401843628F4809104018B5F1E
S113052080930401809104010E94A200FF91EF9145
S1130530BF91AF919F918F917F916F915F914F91F7
S11305403F912F910F900FBE0F901F9018950E940E
S1130550E90208F481E00895E89409C097FB3EF4A9
S113056090958095709561957F4F8F4F9F4F9923FC
S1130570A9F0F92F96E9BB279395F695879577957A
S11305806795B795F111F8CFFAF4BB0F11F460FF3A
S11305901BC06F5F7F4F8F4F9F4F16C0882311F092
S11305A096E911C0772321F09EE8872F762F05C0A6
S11305B0662371F096E8862F70E060E02AF09A9541
S11305C0660F771F881FDAF7880F9695879597F936
S11305D00895990F0008550FAA0BE0E8FEEF1616D0
S11305E01706E807F907C0F012161306E407F50723
S11305F098F0621B730B840B950B39F40A2661F097
S1130600232B242B252B21F408950A2609F4A14039
S1130610A6958FEF811D811D08950E94E90208F4BB
S11306208FEF08950E9425030C9496030E9488037B
S113063038F00E948F0320F0952311F00C947F036F
S11306400C94850311240C94CA030E94A70370F32D
S1130650959FC1F3950F50E0551F629FF001729F63
S1130660BB27F00DB11D639FAA27F00DB11DAA1F72
S1130670649F6627B00DA11D661F829F2227B00DBF
S1130680A11D621F739FB00DA11D621F839FA00D4A
S1130690611D221F749F3327A00D611D231F849F9A
S11306A0600D211D822F762F6A2F11249F575040F1
S11306B09AF0F1F088234AF0EE0FFF1FBB1F661F6C
S11306C0771F881F91505040A9F79E3F510580F035
S11306D00C947F030C94CA035F3FE4F3983ED4F375
S11306E0869577956795B795F795E7959F5FC1F7D9
S11306F0FE2B880F911D9695879597F9089597F984
S11307009F6780E870E060E008959FEF80EC0895B3
S113071000240A94161617061806090608950024DC
S11307200A9412161306140605060895092E039456
S1130730000C11F4882352F0BB0F40F4BF2B11F4CA
S113074060FF04C06F5F7F4F8F4F9F4F089557FD29
S11307509058440F551F59F05F3F71F04795880F2B
S113076097FB991F61F09F3F79F0879508951216C2
S113077013061406551FF2CF4695F1DF08C016166E
S113078017061806991FF1CF86957105610508941F
S11307900895E894BB2766277727CB0197F9089536
S11307A097FB072E16F4009407D077FD09D00E941A
S11307B0E40307FC05D03EF4909581959F4F08957E
S11307C0709561957F4F0895AA1BBB1B51E107C02B
S11307D0AA1FBB1FA617B70710F0A61BB70B881FCD
S11307E0991F5A95A9F780959095BC01CD0108955C
S10707F0F894FFCFA7
S11307F40102030464013F065B4F666D7D077F6F4E
S1070804777C3900C0
S9030000FC
