:100000000C9434000C9451000C9451000C94510049
:100010000C9451000C9451000C9451000C9451001C
:100020000C9451000C9451000C9451000C9451000C
:100030000C9451000C9451000C9451000C945100FC
:100040000C94BC000C9451000C9451000C94510081
:100050000C9451000C9451000C9451000C945100DC
:100060000C9451000C94510011241FBECFEFD8E026
:10007000DEBFCDBF11E0A0E0B1E0E6EBF6E002C0EC
:1000800005900D92A231B107D9F721E0A2E1B1E0CC
:1000900001C01D92A732B207E1F70E9467010C94DC
:1000A00059030C940000F89484B1816084B984B140
:1000B0008D7F84B985B18E7F85B984B1886384B919
:1000C00085B1877C85B910928000109281001092D2
:1000D00085001092840014BC82E085BD16BC81E0CE
:1000E00080936E008FEF8AB987B18E6187B91BB894
:1000F00088B1817E88B978940895873499F4809185
:1001000014019091150101969093150180931401AB
:1001100085B18F7D85B985B18F7E85B985B18860C0
:1001200085B908958D3499F4809116019091170145
:100130000196909317018093160185B18F7D85B943
:1001400085B1806185B985B1877F85B9089580358E
:1001500091F48091190190911A01019690931A01DE
:100160008093190185B1806285B985B18F7E85B98B
:1001700085B1877F85B908951F920F920FB60F92B0
:1001800011242F933F938F939F93EF93FF9388B105
:10019000817E88B9E0911301F0E0E050FF4FE081EB
:1001A000F0E0EC5FFE4F80818BB92091130130E0CD
:1001B0002F5F3F4F81E090E002C0880F991F2A9582
:1001C000E2F798B1892B88B9809113018F5F837012
:1001D00080931301FF91EF919F918F913F912F9108
:1001E0000F900FBE0F901F90189585B18E7F85B927
:1001F0002AE02A95F1F700C085B1816085B985E3D1
:100200008A95F1F7000085B18E7F85B980E090E096
:10021000DC0112C0AC01BD014F5F5F4F6F4F7F4FDC
:1002200081339547A105B10508F04CC085E08A955A
:10023000F1F70000DB01CA01199BECCF1092850099
:10024000109284001092800082E08093810080E010
:1002500090E0DC0118C0AC01BD014F5F5F4F6F4FF4
:100260007F4F81339547A105B10538F01092810089
:1002700060E070E080E89FEB089585E08A95F1F7F3
:100280000000DB01CA011999E6CF609184007091EA
:1002900085001092810080E090E00E940D0220E035
:1002A00030E040E05FE30E94730228E23EE74CE06A
:1002B0005DE30E94730220E030E040E05FE30E94D3
:1002C0007302089560E070E080E89FEB08950E945B
:1002D00053000E94F5006B017C0160932301709331
:1002E0002401809325019093260120E030E041EE27
:1002F00053E40E9408028823CCF5809112018111F9
:1003000035C081E08093120120E030E048E453E4FE
:10031000C701B6010E94080288233CF487E40E94CA
:100320007D008AE08093180121C020E030E046E99A
:1003300053E4C701B6010E94080288233CF48DE40F
:100340000E947D008BE08093180110C020E030E017
:1003500041EE53E4C701B6010E940802882334F439
:1003600080E50E947D008CE080931801609123015C
:1003700070912401809125019091260120E030E0C8
:1003800041EE53E40E946E02181614F4109212010A
:1003900080911801809300018A3041F4209114016A
:1003A0003091150130932201209321018B3041F4CB
:1003B00020911601309117013093220120932101E1
:1003C0008C3041F48091190190911A01909322018F
:1003D00080932101E0902101F0902201C70164E6A1
:1003E00070E00E943103CB012AE030E0B9010E94A5
:1003F0003103E0E0F1E08183C701B9010E943103DC
:10040000482FCB01B9010E9431038283438361CF1E
:100410000E944A0208F481E00895E89409C097FB1D
:100420003EF490958095709561957F4F8F4F9F4FCB
:100430009923A9F0F92F96E9BB279395F69587950F
:1004400077956795B795F111F8CFFAF4BB0F11F4D2
:1004500060FF1BC06F5F7F4F8F4F9F4F16C0882379
:1004600011F096E911C0772321F09EE8872F762FAF
:1004700005C0662371F096E8862F70E060E02AF0F0
:100480009A95660F771F881FDAF7880F96958795DC
:1004900097F90895990F0008550FAA0BE0E8FEEFB1
:1004A00016161706E807F907C0F012161306E40738
:1004B000F50798F0621B730B840B950B39F40A2631
:1004C00061F0232B242B252B21F408950A2609F40F
:1004D000A140A6958FEF811D811D08950E944A02BB
:1004E00008F48FEF08950E9486020C94F7020E9490
:1004F000E90238F00E94F00220F0952311F00C94EC
:10050000E0020C94E60211240C942B030E940803D1
:1005100070F3959FC1F3950F50E0551F629FF00156
:10052000729FBB27F00DB11D639FAA27F00DB11D6F
:10053000AA1F649F6627B00DA11D661F829F2227F8
:10054000B00DA11D621F739FB00DA11D621F839F7F
:10055000A00D611D221F749F3327A00D611D231F55
:10056000849F600D211D822F762F6A2F11249F57A3
:1005700050409AF0F1F088234AF0EE0FFF1FBB1FA6
:10058000661F771F881F91505040A9F79E3F510565
:1005900080F00C94E0020C942B035F3FE4F3983E50
:1005A000D4F3869577956795B795F795E7959F5F0F
:1005B000C1F7FE2B880F911D9695879597F90895A1
:1005C00097F99F6780E870E060E008959FEF80EC06
:1005D000089500240A9416161706180609060895A9
:1005E00000240A9412161306140605060895092E0F
:1005F0000394000C11F4882352F0BB0F40F4BF2B7E
:1006000011F460FF04C06F5F7F4F8F4F9F4F0895BD
:1006100057FD9058440F551F59F05F3F71F04795B3
:10062000880F97FB991F61F09F3F79F08795089598
:10063000121613061406551FF2CF4695F1DF08C0B7
:10064000161617061806991FF1CF869571056105D4
:1006500008940895E894BB2766277727CB0197F97C
:10066000089597FB072E16F4009407D077FD09D064
:100670000E94450307FC05D03EF4909581959F4F5D
:100680000895709561957F4F0895AA1BBB1B51E19A
:1006900007C0AA1FBB1FA617B70710F0A61BB70BF2
:1006A000881F991F5A95A9F780959095BC01CD0197
:0606B0000895F894FFCF4D
:1006B600010203043F065B4F666D7D077F6F777C03
:0206C6003900F9
:00000001FF
